{
  "_format": "hh-sol-artifact-1",
  "contractName": "PollChain",
  "sourceName": "contracts/PollChain.sol",
  "abi": [
    {
      "anonymous": false,
      "inputs": [
        {
          "indexed": true,
          "internalType": "uint256",
          "name": "pollId",
          "type": "uint256"
        }
      ],
      "name": "PollCreated",
      "type": "event"
    },
    {
      "anonymous": false,
      "inputs": [
        {
          "indexed": true,
          "internalType": "uint256",
          "name": "pollId",
          "type": "uint256"
        }
      ],
      "name": "PollDeleted",
      "type": "event"
    },
    {
      "anonymous": false,
      "inputs": [
        {
          "indexed": true,
          "internalType": "uint256",
          "name": "pollId",
          "type": "uint256"
        }
      ],
      "name": "Voted",
      "type": "event"
    },
    {
      "inputs": [
        {
          "internalType": "string",
          "name": "title",
          "type": "string"
        },
        {
          "internalType": "string",
          "name": "question",
          "type": "string"
        },
        {
          "internalType": "string[]",
          "name": "optionTexts",
          "type": "string[]"
        },
        {
          "internalType": "uint256",
          "name": "deadline",
          "type": "uint256"
        }
      ],
      "name": "createPoll",
      "outputs": [],
      "stateMutability": "nonpayable",
      "type": "function"
    },
    {
      "inputs": [
        {
          "internalType": "uint256",
          "name": "pollId",
          "type": "uint256"
        }
      ],
      "name": "deletePoll",
      "outputs": [],
      "stateMutability": "nonpayable",
      "type": "function"
    },
    {
      "inputs": [],
      "name": "getActivePollsCount",
      "outputs": [
        {
          "internalType": "uint256",
          "name": "",
          "type": "uint256"
        }
      ],
      "stateMutability": "view",
      "type": "function"
    },
    {
      "inputs": [
        {
          "internalType": "uint256",
          "name": "start",
          "type": "uint256"
        },
        {
          "internalType": "uint256",
          "name": "limit",
          "type": "uint256"
        }
      ],
      "name": "getAllPolls",
      "outputs": [
        {
          "components": [
            {
              "internalType": "uint256",
              "name": "id",
              "type": "uint256"
            },
            {
              "internalType": "address",
              "name": "creator",
              "type": "address"
            },
            {
              "internalType": "string",
              "name": "title",
              "type": "string"
            },
            {
              "internalType": "string",
              "name": "question",
              "type": "string"
            },
            {
              "internalType": "string[]",
              "name": "optionTexts",
              "type": "string[]"
            },
            {
              "internalType": "uint256[]",
              "name": "optionVotes",
              "type": "uint256[]"
            },
            {
              "internalType": "uint256",
              "name": "voterCount",
              "type": "uint256"
            },
            {
              "internalType": "uint256",
              "name": "deadline",
              "type": "uint256"
            },
            {
              "internalType": "uint256",
              "name": "createdAt",
              "type": "uint256"
            },
            {
              "internalType": "bool",
              "name": "hasAlreadyVoted",
              "type": "bool"
            }
          ],
          "internalType": "struct PollChain.PollDetails[]",
          "name": "",
          "type": "tuple[]"
        }
      ],
      "stateMutability": "view",
      "type": "function"
    },
    {
      "inputs": [],
      "name": "getAllPollsCount",
      "outputs": [
        {
          "internalType": "uint256",
          "name": "",
          "type": "uint256"
        }
      ],
      "stateMutability": "view",
      "type": "function"
    },
    {
      "inputs": [
        {
          "internalType": "uint256",
          "name": "pollId",
          "type": "uint256"
        }
      ],
      "name": "getPoll",
      "outputs": [
        {
          "components": [
            {
              "internalType": "uint256",
              "name": "id",
              "type": "uint256"
            },
            {
              "internalType": "address",
              "name": "creator",
              "type": "address"
            },
            {
              "internalType": "string",
              "name": "title",
              "type": "string"
            },
            {
              "internalType": "string",
              "name": "question",
              "type": "string"
            },
            {
              "internalType": "string[]",
              "name": "optionTexts",
              "type": "string[]"
            },
            {
              "internalType": "uint256[]",
              "name": "optionVotes",
              "type": "uint256[]"
            },
            {
              "internalType": "uint256",
              "name": "voterCount",
              "type": "uint256"
            },
            {
              "internalType": "uint256",
              "name": "deadline",
              "type": "uint256"
            },
            {
              "internalType": "uint256",
              "name": "createdAt",
              "type": "uint256"
            },
            {
              "internalType": "bool",
              "name": "hasAlreadyVoted",
              "type": "bool"
            }
          ],
          "internalType": "struct PollChain.PollDetails",
          "name": "",
          "type": "tuple"
        }
      ],
      "stateMutability": "view",
      "type": "function"
    },
    {
      "inputs": [
        {
          "internalType": "address",
          "name": "_address",
          "type": "address"
        }
      ],
      "name": "getPollsViaAddress",
      "outputs": [
        {
          "components": [
            {
              "internalType": "uint256",
              "name": "id",
              "type": "uint256"
            },
            {
              "internalType": "address",
              "name": "creator",
              "type": "address"
            },
            {
              "internalType": "string",
              "name": "title",
              "type": "string"
            },
            {
              "internalType": "string",
              "name": "question",
              "type": "string"
            },
            {
              "internalType": "string[]",
              "name": "optionTexts",
              "type": "string[]"
            },
            {
              "internalType": "uint256[]",
              "name": "optionVotes",
              "type": "uint256[]"
            },
            {
              "internalType": "uint256",
              "name": "voterCount",
              "type": "uint256"
            },
            {
              "internalType": "uint256",
              "name": "deadline",
              "type": "uint256"
            },
            {
              "internalType": "uint256",
              "name": "createdAt",
              "type": "uint256"
            },
            {
              "internalType": "bool",
              "name": "hasAlreadyVoted",
              "type": "bool"
            }
          ],
          "internalType": "struct PollChain.PollDetails[]",
          "name": "",
          "type": "tuple[]"
        }
      ],
      "stateMutability": "view",
      "type": "function"
    },
    {
      "inputs": [],
      "name": "getPollsVotedByUser",
      "outputs": [
        {
          "internalType": "uint256",
          "name": "",
          "type": "uint256"
        }
      ],
      "stateMutability": "view",
      "type": "function"
    },
    {
      "inputs": [],
      "name": "getUserPolls",
      "outputs": [
        {
          "components": [
            {
              "internalType": "uint256",
              "name": "id",
              "type": "uint256"
            },
            {
              "internalType": "address",
              "name": "creator",
              "type": "address"
            },
            {
              "internalType": "string",
              "name": "title",
              "type": "string"
            },
            {
              "internalType": "string",
              "name": "question",
              "type": "string"
            },
            {
              "internalType": "string[]",
              "name": "optionTexts",
              "type": "string[]"
            },
            {
              "internalType": "uint256[]",
              "name": "optionVotes",
              "type": "uint256[]"
            },
            {
              "internalType": "uint256",
              "name": "voterCount",
              "type": "uint256"
            },
            {
              "internalType": "uint256",
              "name": "deadline",
              "type": "uint256"
            },
            {
              "internalType": "uint256",
              "name": "createdAt",
              "type": "uint256"
            },
            {
              "internalType": "bool",
              "name": "hasAlreadyVoted",
              "type": "bool"
            }
          ],
          "internalType": "struct PollChain.PollDetails[]",
          "name": "",
          "type": "tuple[]"
        }
      ],
      "stateMutability": "view",
      "type": "function"
    },
    {
      "inputs": [],
      "name": "getVotesCasted",
      "outputs": [
        {
          "internalType": "uint256",
          "name": "",
          "type": "uint256"
        }
      ],
      "stateMutability": "view",
      "type": "function"
    },
    {
      "inputs": [
        {
          "internalType": "uint256",
          "name": "",
          "type": "uint256"
        }
      ],
      "name": "polls",
      "outputs": [
        {
          "internalType": "uint256",
          "name": "id",
          "type": "uint256"
        },
        {
          "internalType": "address",
          "name": "creator",
          "type": "address"
        },
        {
          "internalType": "string",
          "name": "title",
          "type": "string"
        },
        {
          "internalType": "string",
          "name": "question",
          "type": "string"
        },
        {
          "internalType": "uint256",
          "name": "voterCount",
          "type": "uint256"
        },
        {
          "internalType": "uint256",
          "name": "deadline",
          "type": "uint256"
        },
        {
          "internalType": "uint256",
          "name": "createdAt",
          "type": "uint256"
        }
      ],
      "stateMutability": "view",
      "type": "function"
    },
    {
      "inputs": [
        {
          "internalType": "address",
          "name": "",
          "type": "address"
        }
      ],
      "name": "pollsVotedCount",
      "outputs": [
        {
          "internalType": "uint256",
          "name": "",
          "type": "uint256"
        }
      ],
      "stateMutability": "view",
      "type": "function"
    },
    {
      "inputs": [
        {
          "internalType": "address",
          "name": "",
          "type": "address"
        },
        {
          "internalType": "uint256",
          "name": "",
          "type": "uint256"
        }
      ],
      "name": "userPolls",
      "outputs": [
        {
          "internalType": "uint256",
          "name": "",
          "type": "uint256"
        }
      ],
      "stateMutability": "view",
      "type": "function"
    },
    {
      "inputs": [
        {
          "internalType": "uint256",
          "name": "pollId",
          "type": "uint256"
        },
        {
          "internalType": "uint256",
          "name": "chosenOption",
          "type": "uint256"
        }
      ],
      "name": "vote",
      "outputs": [],
      "stateMutability": "nonpayable",
      "type": "function"
    }
  ],
  "bytecode": "0x608060405234801561001057600080fd5b5061300a806100206000396000f3fe608060405234801561001057600080fd5b50600436106100ea5760003560e01c8063771e70a31161008c578063aca418bd11610066578063aca418bd1461028b578063ad0f04a9146102a9578063b384abef146102c5578063e317772d146102e1576100ea565b8063771e70a314610219578063a958170314610237578063ac2f007414610255576100ea565b80633c9066af116100c85780633c9066af1461015957806349a4fc641461018957806359b4c2cf146101b957806360b14d0f146101e9576100ea565b80630731948e146100ef5780631a8cbcaa1461010d5780631f35b51d1461013d575b600080fd5b6100f76102ff565b6040516101049190611ce2565b60405180910390f35b61012760048036038101906101229190611d3d565b610309565b60405161013491906120c5565b60405180910390f35b61015760048036038101906101529190611d3d565b6107bf565b005b610173600480360381019061016e9190612113565b610ad3565b6040516101809190611ce2565b60405180910390f35b6101a3600480360381019061019e9190612153565b610b04565b6040516101b09190612331565b60405180910390f35b6101d360048036038101906101ce9190612153565b610ddb565b6040516101e09190611ce2565b60405180910390f35b61020360048036038101906101fe9190612353565b610df3565b6040516102109190612331565b60405180910390f35b610221611061565b60405161022e9190612331565b60405180910390f35b61023f611336565b60405161024c9190611ce2565b60405180910390f35b61026f600480360381019061026a9190611d3d565b61140e565b60405161028297969594939291906123ec565b60405180910390f35b610293611580565b6040516102a09190611ce2565b60405180910390f35b6102c360048036038101906102be9190612684565b6115c7565b005b6102df60048036038101906102da9190612353565b611864565b005b6102e9611b9d565b6040516102f69190611ce2565b60405180910390f35b6000600154905090565b610311611ba6565b81600073ffffffffffffffffffffffffffffffffffffffff166002600083815260200190815260200160002060010160009054906101000a900473ffffffffffffffffffffffffffffffffffffffff1673ffffffffffffffffffffffffffffffffffffffff16036103b7576040517f08c379a00000000000000000000000000000000000000000000000000000000081526004016103ae9061278b565b60405180910390fd5b60006002600085815260200190815260200160002090506000816004018054905067ffffffffffffffff8111156103f1576103f0612473565b5b60405190808252806020026020018201604052801561042457816020015b606081526020019060019003908161040f5790505b5090506000826004018054905067ffffffffffffffff81111561044a57610449612473565b5b6040519080825280602002602001820160405280156104785781602001602082028036833780820191505090505b50905060005b83600401805490508110156105b5578360040181815481106104a3576104a26127ab565b5b906000526020600020906003020160010180546104bf90612809565b80601f01602080910402602001604051908101604052809291908181526020018280546104eb90612809565b80156105385780601f1061050d57610100808354040283529160200191610538565b820191906000526020600020905b81548152906001019060200180831161051b57829003601f168201915b50505050508382815181106105505761054f6127ab565b5b6020026020010181905250836004018181548110610571576105706127ab565b5b906000526020600020906003020160020154828281518110610596576105956127ab565b5b60200260200101818152505080806105ad90612869565b91505061047e565b5060008360080160003373ffffffffffffffffffffffffffffffffffffffff1673ffffffffffffffffffffffffffffffffffffffff16815260200190815260200160002060009054906101000a900460ff169050604051806101400160405280856000015481526020018560010160009054906101000a900473ffffffffffffffffffffffffffffffffffffffff1673ffffffffffffffffffffffffffffffffffffffff16815260200185600201805461066e90612809565b80601f016020809104026020016040519081016040528092919081815260200182805461069a90612809565b80156106e75780601f106106bc576101008083540402835291602001916106e7565b820191906000526020600020905b8154815290600101906020018083116106ca57829003601f168201915b5050505050815260200185600301805461070090612809565b80601f016020809104026020016040519081016040528092919081815260200182805461072c90612809565b80156107795780601f1061074e57610100808354040283529160200191610779565b820191906000526020600020905b81548152906001019060200180831161075c57829003601f168201915b5050505050815260200184815260200183815260200185600501548152602001856006015481526020018560070154815260200182151581525095505050505050919050565b80600073ffffffffffffffffffffffffffffffffffffffff166002600083815260200190815260200160002060010160009054906101000a900473ffffffffffffffffffffffffffffffffffffffff1673ffffffffffffffffffffffffffffffffffffffff1603610865576040517f08c379a000000000000000000000000000000000000000000000000000000000815260040161085c9061278b565b60405180910390fd5b60006002600084815260200190815260200160002090503373ffffffffffffffffffffffffffffffffffffffff168160010160009054906101000a900473ffffffffffffffffffffffffffffffffffffffff1673ffffffffffffffffffffffffffffffffffffffff161461090e576040517f08c379a0000000000000000000000000000000000000000000000000000000008152600401610905906128fd565b60405180910390fd5b600260008481526020019081526020016000206000808201600090556001820160006101000a81549073ffffffffffffffffffffffffffffffffffffffff02191690556002820160006109619190611c11565b6003820160006109719190611c11565b6004820160006109819190611c51565b60058201600090556006820160009055600782016000905550506000600460003373ffffffffffffffffffffffffffffffffffffffff1673ffffffffffffffffffffffffffffffffffffffff168152602001908152602001600020905060005b8180549050811015610a9f5784828281548110610a0157610a006127ab565b5b906000526020600020015403610a8c578160018380549050610a23919061291d565b81548110610a3457610a336127ab565b5b9060005260206000200154828281548110610a5257610a516127ab565b5b906000526020600020018190555081805480610a7157610a70612951565b5b60019003818190600052602060002001600090559055610a9f565b8080610a9790612869565b9150506109e1565b50837fe66ba7d1f84b318686d5d7e1d0a39a60d5faec16733d8c4ae85a0f5b6522eaa160405160405180910390a250505050565b60046020528160005260406000208181548110610aef57600080fd5b90600052602060002001600091509150505481565b60606000600460008473ffffffffffffffffffffffffffffffffffffffff1673ffffffffffffffffffffffffffffffffffffffff168152602001908152602001600020805480602002602001604051908101604052809291908181526020018280548015610b9157602002820191906000526020600020905b815481526020019060010190808311610b7d575b505050505090506000815103610bdc576040517f08c379a0000000000000000000000000000000000000000000000000000000008152600401610bd3906129cc565b60405180910390fd5b6000805b8251811015610c95576000838281518110610bfe57610bfd6127ab565b5b60200260200101519050600073ffffffffffffffffffffffffffffffffffffffff166002600083815260200190815260200160002060010160009054906101000a900473ffffffffffffffffffffffffffffffffffffffff1673ffffffffffffffffffffffffffffffffffffffff1614610c81578280610c7d90612869565b9350505b508080610c8d90612869565b915050610be0565b5060008167ffffffffffffffff811115610cb257610cb1612473565b5b604051908082528060200260200182016040528015610ceb57816020015b610cd8611ba6565b815260200190600190039081610cd05790505b5090506000805b8451811015610dce576000858281518110610d1057610d0f6127ab565b5b60200260200101519050600073ffffffffffffffffffffffffffffffffffffffff166002600083815260200190815260200160002060010160009054906101000a900473ffffffffffffffffffffffffffffffffffffffff1673ffffffffffffffffffffffffffffffffffffffff1614610dba57610d8d81610309565b848481518110610da057610d9f6127ab565b5b60200260200101819052508280610db690612869565b9350505b508080610dc690612869565b915050610cf2565b5081945050505050919050565b60036020528060005260406000206000915090505481565b60606000805411610e39576040517f08c379a0000000000000000000000000000000000000000000000000000000008152600401610e3090612a38565b60405180910390fd5b6000548310610e7d576040517f08c379a0000000000000000000000000000000000000000000000000000000008152600401610e7490612aa4565b60405180910390fd5b60008284610e8b9190612ac4565b9050600054811115610e9d5760005490505b6000808590505b82811015610f3857600073ffffffffffffffffffffffffffffffffffffffff166002600083815260200190815260200160002060010160009054906101000a900473ffffffffffffffffffffffffffffffffffffffff1673ffffffffffffffffffffffffffffffffffffffff1614610f25578180610f2190612869565b9250505b8080610f3090612869565b915050610ea4565b5060008167ffffffffffffffff811115610f5557610f54612473565b5b604051908082528060200260200182016040528015610f8e57816020015b610f7b611ba6565b815260200190600190039081610f735790505b5090506000808790505b8481101561105357600073ffffffffffffffffffffffffffffffffffffffff166002600083815260200190815260200160002060010160009054906101000a900473ffffffffffffffffffffffffffffffffffffffff1673ffffffffffffffffffffffffffffffffffffffff16146110405761101381610309565b838381518110611026576110256127ab565b5b6020026020010181905250818061103c90612869565b9250505b808061104b90612869565b915050610f98565b508194505050505092915050565b60606000600460003373ffffffffffffffffffffffffffffffffffffffff1673ffffffffffffffffffffffffffffffffffffffff1681526020019081526020016000208054806020026020016040519081016040528092919081815260200182805480156110ee57602002820191906000526020600020905b8154815260200190600101908083116110da575b505050505090506000815103611139576040517f08c379a0000000000000000000000000000000000000000000000000000000008152600401611130906129cc565b60405180910390fd5b6000805b82518110156111f257600083828151811061115b5761115a6127ab565b5b60200260200101519050600073ffffffffffffffffffffffffffffffffffffffff166002600083815260200190815260200160002060010160009054906101000a900473ffffffffffffffffffffffffffffffffffffffff1673ffffffffffffffffffffffffffffffffffffffff16146111de5782806111da90612869565b9350505b5080806111ea90612869565b91505061113d565b5060008167ffffffffffffffff81111561120f5761120e612473565b5b60405190808252806020026020018201604052801561124857816020015b611235611ba6565b81526020019060019003908161122d5790505b5090506000805b845181101561132b57600085828151811061126d5761126c6127ab565b5b60200260200101519050600073ffffffffffffffffffffffffffffffffffffffff166002600083815260200190815260200160002060010160009054906101000a900473ffffffffffffffffffffffffffffffffffffffff1673ffffffffffffffffffffffffffffffffffffffff1614611317576112ea81610309565b8484815181106112fd576112fc6127ab565b5b6020026020010181905250828061131390612869565b9350505b50808061132390612869565b91505061124f565b508194505050505090565b6000806000905060005b60005481101561140657600073ffffffffffffffffffffffffffffffffffffffff166002600083815260200190815260200160002060010160009054906101000a900473ffffffffffffffffffffffffffffffffffffffff1673ffffffffffffffffffffffffffffffffffffffff16141580156113df57506103e8426113c69190612af8565b6002600083815260200190815260200160002060060154115b156113f35781806113ef90612869565b9250505b80806113fe90612869565b915050611340565b508091505090565b60026020528060005260406000206000915090508060000154908060010160009054906101000a900473ffffffffffffffffffffffffffffffffffffffff169080600201805461145d90612809565b80601f016020809104026020016040519081016040528092919081815260200182805461148990612809565b80156114d65780601f106114ab576101008083540402835291602001916114d6565b820191906000526020600020905b8154815290600101906020018083116114b957829003601f168201915b5050505050908060030180546114eb90612809565b80601f016020809104026020016040519081016040528092919081815260200182805461151790612809565b80156115645780601f1061153957610100808354040283529160200191611564565b820191906000526020600020905b81548152906001019060200180831161154757829003601f168201915b5050505050908060050154908060060154908060070154905087565b6000600360003373ffffffffffffffffffffffffffffffffffffffff1673ffffffffffffffffffffffffffffffffffffffff16815260200190815260200160002054905090565b600182511161160b576040517f08c379a000000000000000000000000000000000000000000000000000000000815260040161160290612b86565b60405180910390fd5b6103e8426116199190612af8565b811161165a576040517f08c379a000000000000000000000000000000000000000000000000000000000815260040161165190612bf2565b60405180910390fd5b60006002600080548152602001908152602001600020905060005481600001819055508481600201908161168e9190612dbe565b50338160010160006101000a81548173ffffffffffffffffffffffffffffffffffffffff021916908373ffffffffffffffffffffffffffffffffffffffff160217905550838160030190816116e39190612dbe565b5060005b835181101561179257816004016040518060600160405280838152602001868481518110611718576117176127ab565b5b60200260200101518152602001600081525090806001815401808255809150506001900390600052602060002090600302016000909190919091506000820151816000015560208201518160010190816117729190612dbe565b50604082015181600201555050808061178a90612869565b9150506116e7565b5060008160050181905550818160060181905550428160070181905550600460003373ffffffffffffffffffffffffffffffffffffffff1673ffffffffffffffffffffffffffffffffffffffff16815260200190815260200160002060005490806001815401808255809150506001900390600052602060002001600090919091909150556000547fab0309b6731a34e8750174d3c2c9591a34a2bf0c1425a30b34122be08d05073960405160405180910390a260008081548092919061185890612869565b91905055505050505050565b81600073ffffffffffffffffffffffffffffffffffffffff166002600083815260200190815260200160002060010160009054906101000a900473ffffffffffffffffffffffffffffffffffffffff1673ffffffffffffffffffffffffffffffffffffffff160361190a576040517f08c379a00000000000000000000000000000000000000000000000000000000081526004016119019061278b565b60405180910390fd5b600060026000858152602001908152602001600020905080600601546103e8426119349190612af8565b10611974576040517f08c379a000000000000000000000000000000000000000000000000000000000815260040161196b90612edc565b60405180910390fd5b8060080160003373ffffffffffffffffffffffffffffffffffffffff1673ffffffffffffffffffffffffffffffffffffffff16815260200190815260200160002060009054906101000a900460ff1615611a03576040517f08c379a00000000000000000000000000000000000000000000000000000000081526004016119fa90612f48565b60405180910390fd5b80600401805490508310611a4c576040517f08c379a0000000000000000000000000000000000000000000000000000000008152600401611a4390612fb4565b60405180910390fd5b806004018381548110611a6257611a616127ab565b5b90600052602060002090600302016002016000815480929190611a8490612869565b919050555060018160080160003373ffffffffffffffffffffffffffffffffffffffff1673ffffffffffffffffffffffffffffffffffffffff16815260200190815260200160002060006101000a81548160ff021916908315150217905550806005016000815480929190611af890612869565b9190505550600360003373ffffffffffffffffffffffffffffffffffffffff1673ffffffffffffffffffffffffffffffffffffffff1681526020019081526020016000206000815480929190611b4d90612869565b919050555060016000815480929190611b6590612869565b9190505550837f7f511e347bf51eed3be100b3194247d5207f05f3b33de7d31e3e8ee73199a04960405160405180910390a250505050565b60008054905090565b60405180610140016040528060008152602001600073ffffffffffffffffffffffffffffffffffffffff168152602001606081526020016060815260200160608152602001606081526020016000815260200160008152602001600081526020016000151581525090565b508054611c1d90612809565b6000825580601f10611c2f5750611c4e565b601f016020900490600052602060002090810190611c4d9190611c75565b5b50565b5080546000825560030290600052602060002090810190611c729190611c92565b50565b5b80821115611c8e576000816000905550600101611c76565b5090565b5b80821115611cc557600080820160009055600182016000611cb49190611c11565b600282016000905550600301611c93565b5090565b6000819050919050565b611cdc81611cc9565b82525050565b6000602082019050611cf76000830184611cd3565b92915050565b6000604051905090565b600080fd5b600080fd5b611d1a81611cc9565b8114611d2557600080fd5b50565b600081359050611d3781611d11565b92915050565b600060208284031215611d5357611d52611d07565b5b6000611d6184828501611d28565b91505092915050565b611d7381611cc9565b82525050565b600073ffffffffffffffffffffffffffffffffffffffff82169050919050565b6000611da482611d79565b9050919050565b611db481611d99565b82525050565b600081519050919050565b600082825260208201905092915050565b60005b83811015611df4578082015181840152602081019050611dd9565b60008484015250505050565b6000601f19601f8301169050919050565b6000611e1c82611dba565b611e268185611dc5565b9350611e36818560208601611dd6565b611e3f81611e00565b840191505092915050565b600081519050919050565b600082825260208201905092915050565b6000819050602082019050919050565b6000611e828383611e11565b905092915050565b6000602082019050919050565b6000611ea282611e4a565b611eac8185611e55565b935083602082028501611ebe85611e66565b8060005b85811015611efa5784840389528151611edb8582611e76565b9450611ee683611e8a565b925060208a01995050600181019050611ec2565b50829750879550505050505092915050565b600081519050919050565b600082825260208201905092915050565b6000819050602082019050919050565b6000611f448383611d6a565b60208301905092915050565b6000602082019050919050565b6000611f6882611f0c565b611f728185611f17565b9350611f7d83611f28565b8060005b83811015611fae578151611f958882611f38565b9750611fa083611f50565b925050600181019050611f81565b5085935050505092915050565b60008115159050919050565b611fd081611fbb565b82525050565b600061014083016000830151611fef6000860182611d6a565b5060208301516120026020860182611dab565b506040830151848203604086015261201a8282611e11565b915050606083015184820360608601526120348282611e11565b9150506080830151848203608086015261204e8282611e97565b91505060a083015184820360a08601526120688282611f5d565b91505060c083015161207d60c0860182611d6a565b5060e083015161209060e0860182611d6a565b506101008301516120a5610100860182611d6a565b506101208301516120ba610120860182611fc7565b508091505092915050565b600060208201905081810360008301526120df8184611fd6565b905092915050565b6120f081611d99565b81146120fb57600080fd5b50565b60008135905061210d816120e7565b92915050565b6000806040838503121561212a57612129611d07565b5b6000612138858286016120fe565b925050602061214985828601611d28565b9150509250929050565b60006020828403121561216957612168611d07565b5b6000612177848285016120fe565b91505092915050565b600081519050919050565b600082825260208201905092915050565b6000819050602082019050919050565b6000610140830160008301516121c56000860182611d6a565b5060208301516121d86020860182611dab565b50604083015184820360408601526121f08282611e11565b9150506060830151848203606086015261220a8282611e11565b915050608083015184820360808601526122248282611e97565b91505060a083015184820360a086015261223e8282611f5d565b91505060c083015161225360c0860182611d6a565b5060e083015161226660e0860182611d6a565b5061010083015161227b610100860182611d6a565b50610120830151612290610120860182611fc7565b508091505092915050565b60006122a783836121ac565b905092915050565b6000602082019050919050565b60006122c782612180565b6122d1818561218b565b9350836020820285016122e38561219c565b8060005b8581101561231f5784840389528151612300858261229b565b945061230b836122af565b925060208a019950506001810190506122e7565b50829750879550505050505092915050565b6000602082019050818103600083015261234b81846122bc565b905092915050565b6000806040838503121561236a57612369611d07565b5b600061237885828601611d28565b925050602061238985828601611d28565b9150509250929050565b61239c81611d99565b82525050565b600082825260208201905092915050565b60006123be82611dba565b6123c881856123a2565b93506123d8818560208601611dd6565b6123e181611e00565b840191505092915050565b600060e082019050612401600083018a611cd3565b61240e6020830189612393565b818103604083015261242081886123b3565b9050818103606083015261243481876123b3565b90506124436080830186611cd3565b61245060a0830185611cd3565b61245d60c0830184611cd3565b98975050505050505050565b600080fd5b600080fd5b7f4e487b7100000000000000000000000000000000000000000000000000000000600052604160045260246000fd5b6124ab82611e00565b810181811067ffffffffffffffff821117156124ca576124c9612473565b5b80604052505050565b60006124dd611cfd565b90506124e982826124a2565b919050565b600067ffffffffffffffff82111561250957612508612473565b5b61251282611e00565b9050602081019050919050565b82818337600083830152505050565b600061254161253c846124ee565b6124d3565b90508281526020810184848401111561255d5761255c61246e565b5b61256884828561251f565b509392505050565b600082601f83011261258557612584612469565b5b813561259584826020860161252e565b91505092915050565b600067ffffffffffffffff8211156125b9576125b8612473565b5b602082029050602081019050919050565b600080fd5b60006125e26125dd8461259e565b6124d3565b90508083825260208201905060208402830185811115612605576126046125ca565b5b835b8181101561264c57803567ffffffffffffffff81111561262a57612629612469565b5b8086016126378982612570565b85526020850194505050602081019050612607565b5050509392505050565b600082601f83011261266b5761266a612469565b5b813561267b8482602086016125cf565b91505092915050565b6000806000806080858703121561269e5761269d611d07565b5b600085013567ffffffffffffffff8111156126bc576126bb611d0c565b5b6126c887828801612570565b945050602085013567ffffffffffffffff8111156126e9576126e8611d0c565b5b6126f587828801612570565b935050604085013567ffffffffffffffff81111561271657612715611d0c565b5b61272287828801612656565b925050606061273387828801611d28565b91505092959194509250565b7f506f6c6c20646f6573206e6f7420657869737400000000000000000000000000600082015250565b60006127756013836123a2565b91506127808261273f565b602082019050919050565b600060208201905081810360008301526127a481612768565b9050919050565b7f4e487b7100000000000000000000000000000000000000000000000000000000600052603260045260246000fd5b7f4e487b7100000000000000000000000000000000000000000000000000000000600052602260045260246000fd5b6000600282049050600182168061282157607f821691505b602082108103612834576128336127da565b5b50919050565b7f4e487b7100000000000000000000000000000000000000000000000000000000600052601160045260246000fd5b600061287482611cc9565b91507fffffffffffffffffffffffffffffffffffffffffffffffffffffffffffffffff82036128a6576128a561283a565b5b600182019050919050565b7f4f6e6c792063726561746f722063616e2064656c657465000000000000000000600082015250565b60006128e76017836123a2565b91506128f2826128b1565b602082019050919050565b60006020820190508181036000830152612916816128da565b9050919050565b600061292882611cc9565b915061293383611cc9565b925082820390508181111561294b5761294a61283a565b5b92915050565b7f4e487b7100000000000000000000000000000000000000000000000000000000600052603160045260246000fd5b7f4e6f20706f6c6c73206372656174656420627920746869732075736572000000600082015250565b60006129b6601d836123a2565b91506129c182612980565b602082019050919050565b600060208201905081810360008301526129e5816129a9565b9050919050565b7f4e6f20706f6c6c73206372656174656420796574000000000000000000000000600082015250565b6000612a226014836123a2565b9150612a2d826129ec565b602082019050919050565b60006020820190508181036000830152612a5181612a15565b9050919050565b7f537461727420696e646578206f7574206f6620626f756e647300000000000000600082015250565b6000612a8e6019836123a2565b9150612a9982612a58565b602082019050919050565b60006020820190508181036000830152612abd81612a81565b9050919050565b6000612acf82611cc9565b9150612ada83611cc9565b9250828201905080821115612af257612af161283a565b5b92915050565b6000612b0382611cc9565b9150612b0e83611cc9565b9250828202612b1c81611cc9565b91508282048414831517612b3357612b3261283a565b5b5092915050565b7f4d7573742068617665206174206c656173742074776f206f7074696f6e730000600082015250565b6000612b70601e836123a2565b9150612b7b82612b3a565b602082019050919050565b60006020820190508181036000830152612b9f81612b63565b9050919050565b7f446561646c696e65206d75737420626520696e20746865206675747572650000600082015250565b6000612bdc601e836123a2565b9150612be782612ba6565b602082019050919050565b60006020820190508181036000830152612c0b81612bcf565b9050919050565b60008190508160005260206000209050919050565b60006020601f8301049050919050565b600082821b905092915050565b600060088302612c747fffffffffffffffffffffffffffffffffffffffffffffffffffffffffffffffff82612c37565b612c7e8683612c37565b95508019841693508086168417925050509392505050565b6000819050919050565b6000612cbb612cb6612cb184611cc9565b612c96565b611cc9565b9050919050565b6000819050919050565b612cd583612ca0565b612ce9612ce182612cc2565b848454612c44565b825550505050565b600090565b612cfe612cf1565b612d09818484612ccc565b505050565b5b81811015612d2d57612d22600082612cf6565b600181019050612d0f565b5050565b601f821115612d7257612d4381612c12565b612d4c84612c27565b81016020851015612d5b578190505b612d6f612d6785612c27565b830182612d0e565b50505b505050565b600082821c905092915050565b6000612d9560001984600802612d77565b1980831691505092915050565b6000612dae8383612d84565b9150826002028217905092915050565b612dc782611dba565b67ffffffffffffffff811115612de057612ddf612473565b5b612dea8254612809565b612df5828285612d31565b600060209050601f831160018114612e285760008415612e16578287015190505b612e208582612da2565b865550612e88565b601f198416612e3686612c12565b60005b82811015612e5e57848901518255600182019150602085019450602081019050612e39565b86831015612e7b5784890151612e77601f891682612d84565b8355505b6001600288020188555050505b505050505050565b7f566f74696e6720706572696f642068617320656e646564000000000000000000600082015250565b6000612ec66017836123a2565b9150612ed182612e90565b602082019050919050565b60006020820190508181036000830152612ef581612eb9565b9050919050565b7f416c726561647920766f74656400000000000000000000000000000000000000600082015250565b6000612f32600d836123a2565b9150612f3d82612efc565b602082019050919050565b60006020820190508181036000830152612f6181612f25565b9050919050565b7f496e76616c6964206f7074696f6e000000000000000000000000000000000000600082015250565b6000612f9e600e836123a2565b9150612fa982612f68565b602082019050919050565b60006020820190508181036000830152612fcd81612f91565b905091905056fea2646970667358221220ca5f417ea36690b41dd33c3d1ca969903abfe45c960aee03f469e1a56b6966f164736f6c63430008140033",
  "linkReferences": {},
  "deployedLinkReferences": {}
}